{
  "contractName": "CloudStorage",
  "abi": [
    {
      "constant": true,
      "inputs": [
        {
          "internalType": "address",
          "name": "",
          "type": "address"
        },
        {
          "internalType": "uint256",
          "name": "",
          "type": "uint256"
        }
      ],
      "name": "fileMapping",
      "outputs": [
        {
          "internalType": "string",
          "name": "filename",
          "type": "string"
        },
        {
          "internalType": "string",
          "name": "filesize",
          "type": "string"
        },
        {
          "internalType": "uint256",
          "name": "uploaddate",
          "type": "uint256"
        },
        {
          "internalType": "string",
          "name": "ipfshash",
          "type": "string"
        },
        {
          "internalType": "bool",
          "name": "shared",
          "type": "bool"
        }
      ],
      "payable": false,
      "stateMutability": "view",
      "type": "function"
    },
    {
      "constant": false,
      "inputs": [
        {
          "internalType": "string",
          "name": "filename",
          "type": "string"
        },
        {
          "internalType": "string",
          "name": "filesize",
          "type": "string"
        },
        {
          "internalType": "uint256",
          "name": "uploaddate",
          "type": "uint256"
        },
        {
          "internalType": "string",
          "name": "ipfshash",
          "type": "string"
        }
      ],
      "name": "addFile",
      "outputs": [],
      "payable": false,
      "stateMutability": "nonpayable",
      "type": "function"
    },
    {
      "constant": true,
      "inputs": [
        {
          "internalType": "address",
          "name": "_usraddr",
          "type": "address"
        }
      ],
      "name": "getFiles",
      "outputs": [
        {
          "components": [
            {
              "internalType": "string",
              "name": "filename",
              "type": "string"
            },
            {
              "internalType": "string",
              "name": "filesize",
              "type": "string"
            },
            {
              "internalType": "uint256",
              "name": "uploaddate",
              "type": "uint256"
            },
            {
              "internalType": "string",
              "name": "ipfshash",
              "type": "string"
            },
            {
              "internalType": "bool",
              "name": "shared",
              "type": "bool"
            }
          ],
          "internalType": "struct CloudStorage.fileInfo[]",
          "name": "",
          "type": "tuple[]"
        }
      ],
      "payable": false,
      "stateMutability": "view",
      "type": "function"
    },
    {
      "constant": false,
      "inputs": [
        {
          "internalType": "address",
          "name": "_toaddr",
          "type": "address"
        },
        {
          "internalType": "string",
          "name": "filename",
          "type": "string"
        },
        {
          "internalType": "string",
          "name": "filesize",
          "type": "string"
        },
        {
          "internalType": "uint256",
          "name": "uploaddate",
          "type": "uint256"
        },
        {
          "internalType": "string",
          "name": "ipfshash",
          "type": "string"
        }
      ],
      "name": "shareFile",
      "outputs": [],
      "payable": false,
      "stateMutability": "nonpayable",
      "type": "function"
    }
  ],
  "bytecode": "0x608060405234801561001057600080fd5b50610ef7806100206000396000f3fe608060405234801561001057600080fd5b506004361061004c5760003560e01c80631841fbde14610051578063433bf37b146100855780637acd1b6a146100b55780639a0c39c2146100d1575b600080fd5b61006b60048036036100669190810190610a00565b6100ed565b60405161007c959493929190610cc4565b60405180910390f35b61009f600480360361009a9190810190610918565b610312565b6040516100ac9190610ca2565b60405180910390f35b6100cf60048036036100ca9190810190610a3c565b6105ba565b005b6100eb60048036036100e69190810190610941565b6106d7565b005b6000602052816000526040600020818154811061010657fe5b906000526020600020906005020160009150915050806000018054600181600116156101000203166002900480601f0160208091040260200160405190810160405280929190818152602001828054600181600116156101000203166002900480156101b35780601f10610188576101008083540402835291602001916101b3565b820191906000526020600020905b81548152906001019060200180831161019657829003601f168201915b505050505090806001018054600181600116156101000203166002900480601f0160208091040260200160405190810160405280929190818152602001828054600181600116156101000203166002900480156102515780601f1061022657610100808354040283529160200191610251565b820191906000526020600020905b81548152906001019060200180831161023457829003601f168201915b505050505090806002015490806003018054600181600116156101000203166002900480601f0160208091040260200160405190810160405280929190818152602001828054600181600116156101000203166002900480156102f55780601f106102ca576101008083540402835291602001916102f5565b820191906000526020600020905b8154815290600101906020018083116102d857829003601f168201915b5050505050908060040160009054906101000a900460ff16905085565b60606000808373ffffffffffffffffffffffffffffffffffffffff1673ffffffffffffffffffffffffffffffffffffffff168152602001908152602001600020805480602002602001604051908101604052809291908181526020016000905b828210156105af57838290600052602060002090600502016040518060a0016040529081600082018054600181600116156101000203166002900480601f01602080910402602001604051908101604052809291908181526020018280546001816001161561010002031660029004801561042e5780601f106104035761010080835404028352916020019161042e565b820191906000526020600020905b81548152906001019060200180831161041157829003601f168201915b50505050508152602001600182018054600181600116156101000203166002900480601f0160208091040260200160405190810160405280929190818152602001828054600181600116156101000203166002900480156104d05780601f106104a5576101008083540402835291602001916104d0565b820191906000526020600020905b8154815290600101906020018083116104b357829003601f168201915b5050505050815260200160028201548152602001600382018054600181600116156101000203166002900480601f01602080910402602001604051908101604052809291908181526020018280546001816001161561010002031660029004801561057c5780601f106105515761010080835404028352916020019161057c565b820191906000526020600020905b81548152906001019060200180831161055f57829003601f168201915b505050505081526020016004820160009054906101000a900460ff16151515158152505081526020019060010190610372565b505050509050919050565b6000803373ffffffffffffffffffffffffffffffffffffffff1673ffffffffffffffffffffffffffffffffffffffff1681526020019081526020016000206040518060a00160405280868152602001858152602001848152602001838152602001600015158152509080600181540180825580915050906001820390600052602060002090600502016000909192909190915060008201518160000190805190602001906106699291906107f5565b5060208201518160010190805190602001906106869291906107f5565b506040820151816002015560608201518160030190805190602001906106ad9291906107f5565b5060808201518160040160006101000a81548160ff02191690831515021790555050505050505050565b6000808673ffffffffffffffffffffffffffffffffffffffff1673ffffffffffffffffffffffffffffffffffffffff1681526020019081526020016000206040518060a00160405280868152602001858152602001848152602001838152602001600115158152509080600181540180825580915050906001820390600052602060002090600502016000909192909190915060008201518160000190805190602001906107869291906107f5565b5060208201518160010190805190602001906107a39291906107f5565b506040820151816002015560608201518160030190805190602001906107ca9291906107f5565b5060808201518160040160006101000a81548160ff0219169083151502179055505050505050505050565b828054600181600116156101000203166002900490600052602060002090601f016020900481019282601f1061083657805160ff1916838001178555610864565b82800160010185558215610864579182015b82811115610863578251825591602001919060010190610848565b5b5090506108719190610875565b5090565b61089791905b8082111561089357600081600090555060010161087b565b5090565b90565b6000813590506108a981610e86565b92915050565b600082601f8301126108c057600080fd5b81356108d36108ce82610d59565b610d2c565b915080825260208301602083018583830111156108ef57600080fd5b6108fa838284610e33565b50505092915050565b60008135905061091281610e9d565b92915050565b60006020828403121561092a57600080fd5b60006109388482850161089a565b91505092915050565b600080600080600060a0868803121561095957600080fd5b60006109678882890161089a565b955050602086013567ffffffffffffffff81111561098457600080fd5b610990888289016108af565b945050604086013567ffffffffffffffff8111156109ad57600080fd5b6109b9888289016108af565b93505060606109ca88828901610903565b925050608086013567ffffffffffffffff8111156109e757600080fd5b6109f3888289016108af565b9150509295509295909350565b60008060408385031215610a1357600080fd5b6000610a218582860161089a565b9250506020610a3285828601610903565b9150509250929050565b60008060008060808587031215610a5257600080fd5b600085013567ffffffffffffffff811115610a6c57600080fd5b610a78878288016108af565b945050602085013567ffffffffffffffff811115610a9557600080fd5b610aa1878288016108af565b9350506040610ab287828801610903565b925050606085013567ffffffffffffffff811115610acf57600080fd5b610adb878288016108af565b91505092959194509250565b6000610af38383610c00565b905092915050565b6000610b0682610d95565b610b108185610db8565b935083602082028501610b2285610d85565b8060005b85811015610b5e5784840389528151610b3f8582610ae7565b9450610b4a83610dab565b925060208a01995050600181019050610b26565b50829750879550505050505092915050565b610b7981610dfd565b82525050565b610b8881610dfd565b82525050565b6000610b9982610da0565b610ba38185610dc9565b9350610bb3818560208601610e42565b610bbc81610e75565b840191505092915050565b6000610bd282610da0565b610bdc8185610dda565b9350610bec818560208601610e42565b610bf581610e75565b840191505092915050565b600060a0830160008301518482036000860152610c1d8282610b8e565b91505060208301518482036020860152610c378282610b8e565b9150506040830151610c4c6040860182610c84565b5060608301518482036060860152610c648282610b8e565b9150506080830151610c796080860182610b70565b508091505092915050565b610c8d81610e29565b82525050565b610c9c81610e29565b82525050565b60006020820190508181036000830152610cbc8184610afb565b905092915050565b600060a0820190508181036000830152610cde8188610bc7565b90508181036020830152610cf28187610bc7565b9050610d016040830186610c93565b8181036060830152610d138185610bc7565b9050610d226080830184610b7f565b9695505050505050565b6000604051905081810181811067ffffffffffffffff82111715610d4f57600080fd5b8060405250919050565b600067ffffffffffffffff821115610d7057600080fd5b601f19601f8301169050602081019050919050565b6000819050602082019050919050565b600081519050919050565b600081519050919050565b6000602082019050919050565b600082825260208201905092915050565b600082825260208201905092915050565b600082825260208201905092915050565b6000610df682610e09565b9050919050565b60008115159050919050565b600073ffffffffffffffffffffffffffffffffffffffff82169050919050565b6000819050919050565b82818337600083830152505050565b60005b83811015610e60578082015181840152602081019050610e45565b83811115610e6f576000848401525b50505050565b6000601f19601f8301169050919050565b610e8f81610deb565b8114610e9a57600080fd5b50565b610ea681610e29565b8114610eb157600080fd5b5056fea365627a7a723158209f6e60882ec85ec13ec2eea0a314264594940b219bb3566147dfd01b81faa1f16c6578706572696d656e74616cf564736f6c63430005100040",
  "source": "// SPDX-License-Identifier: MIT\r\npragma solidity >=0.4.21;\r\npragma experimental ABIEncoderV2;\r\n\r\ncontract CloudStorage {\r\n    struct fileInfo {\r\n      string filename;\r\n      string filesize;\r\n      uint256 uploaddate;\r\n      string ipfshash;\r\n      bool shared;\r\n    }\r\n\r\n    mapping (address => fileInfo[]) public fileMapping;\r\n\r\n    function addFile(string memory filename, string memory filesize, uint256 uploaddate, string memory ipfshash) public \r\n    {\r\n        fileMapping[msg.sender].push(fileInfo(filename,filesize,uploaddate,ipfshash,false));\r\n    }\r\n\r\n    function getFiles(address _usraddr) public view returns (fileInfo [] memory) {\r\n        return fileMapping[_usraddr];\r\n    }\r\n\r\n    function shareFile(address _toaddr, string memory filename, string memory filesize, uint256 uploaddate, string memory ipfshash) public\r\n    {\r\n        fileMapping[_toaddr].push(fileInfo(filename,filesize,uploaddate,ipfshash,true));\r\n    }\r\n}\r\n",
  "sourcePath": "F:\\Blockchain\\PDC Final\\DStore-App\\contracts\\CloudStorage.sol",
  "compiler": {
    "name": "solc",
    "version": "0.5.16+commit.9c3226ce.Emscripten.clang"
  },
  "schemaVersion": "3.4.3",
  "updatedAt": "2021-12-06T17:54:39.857Z",
  "networkType": "ethereum",
  "devdoc": {
    "methods": {}
  },
  "userdoc": {
    "methods": {}
  }
}