{
  "contractName": "LoginInfo",
  "abi": [
    {
      "constant": true,
      "inputs": [
        {
          "internalType": "address",
          "name": "",
          "type": "address"
        }
      ],
      "name": "userMapping",
      "outputs": [
        {
          "internalType": "string",
          "name": "username",
          "type": "string"
        },
        {
          "internalType": "string",
          "name": "email",
          "type": "string"
        }
      ],
      "payable": false,
      "stateMutability": "view",
      "type": "function"
    },
    {
      "constant": false,
      "inputs": [
        {
          "internalType": "address",
          "name": "_usraddr",
          "type": "address"
        },
        {
          "internalType": "string",
          "name": "name",
          "type": "string"
        },
        {
          "internalType": "string",
          "name": "email",
          "type": "string"
        }
      ],
      "name": "registerUser",
      "outputs": [],
      "payable": false,
      "stateMutability": "nonpayable",
      "type": "function"
    },
    {
      "constant": true,
      "inputs": [
        {
          "internalType": "address",
          "name": "_usraddr",
          "type": "address"
        }
      ],
      "name": "getUser",
      "outputs": [
        {
          "components": [
            {
              "internalType": "string",
              "name": "username",
              "type": "string"
            },
            {
              "internalType": "string",
              "name": "email",
              "type": "string"
            }
          ],
          "internalType": "struct LoginInfo.userStruct",
          "name": "_userStruct",
          "type": "tuple"
        }
      ],
      "payable": false,
      "stateMutability": "view",
      "type": "function"
    }
  ],
  "bytecode": "0x608060405234801561001057600080fd5b5061088c806100206000396000f3fe608060405234801561001057600080fd5b50600436106100415760003560e01c8063118b9535146100465780636f77926b14610077578063db0c87c9146100a7575b600080fd5b610060600480360361005b9190810190610570565b6100c3565b60405161006e9291906106ce565b60405180910390f35b610091600480360361008c9190810190610570565b610217565b60405161009e9190610705565b60405180910390f35b6100c160048036036100bc9190810190610599565b6103b3565b005b6000602052806000526040600020600091509050806000018054600181600116156101000203166002900480601f01602080910402602001604051908101604052809291908181526020018280546001816001161561010002031660029004801561016f5780601f106101445761010080835404028352916020019161016f565b820191906000526020600020905b81548152906001019060200180831161015257829003601f168201915b505050505090806001018054600181600116156101000203166002900480601f01602080910402602001604051908101604052809291908181526020018280546001816001161561010002031660029004801561020d5780601f106101e25761010080835404028352916020019161020d565b820191906000526020600020905b8154815290600101906020018083116101f057829003601f168201915b5050505050905082565b61021f610448565b6000808373ffffffffffffffffffffffffffffffffffffffff1673ffffffffffffffffffffffffffffffffffffffff168152602001908152602001600020604051806040016040529081600082018054600181600116156101000203166002900480601f0160208091040260200160405190810160405280929190818152602001828054600181600116156101000203166002900480156103015780601f106102d657610100808354040283529160200191610301565b820191906000526020600020905b8154815290600101906020018083116102e457829003601f168201915b50505050508152602001600182018054600181600116156101000203166002900480601f0160208091040260200160405190810160405280929190818152602001828054600181600116156101000203166002900480156103a35780601f10610378576101008083540402835291602001916103a3565b820191906000526020600020905b81548152906001019060200180831161038657829003601f168201915b5050505050815250509050919050565b6040518060400160405280838152602001828152506000808573ffffffffffffffffffffffffffffffffffffffff1673ffffffffffffffffffffffffffffffffffffffff1681526020019081526020016000206000820151816000019080519060200190610422929190610462565b50602082015181600101908051906020019061043f929190610462565b50905050505050565b604051806040016040528060608152602001606081525090565b828054600181600116156101000203166002900490600052602060002090601f016020900481019282601f106104a357805160ff19168380011785556104d1565b828001600101855582156104d1579182015b828111156104d05782518255916020019190600101906104b5565b5b5090506104de91906104e2565b5090565b61050491905b808211156105005760008160009055506001016104e8565b5090565b90565b60008135905061051681610832565b92915050565b600082601f83011261052d57600080fd5b813561054061053b82610754565b610727565b9150808252602083016020830185838301111561055c57600080fd5b6105678382846107df565b50505092915050565b60006020828403121561058257600080fd5b600061059084828501610507565b91505092915050565b6000806000606084860312156105ae57600080fd5b60006105bc86828701610507565b935050602084013567ffffffffffffffff8111156105d957600080fd5b6105e58682870161051c565b925050604084013567ffffffffffffffff81111561060257600080fd5b61060e8682870161051c565b9150509250925092565b600061062382610780565b61062d818561078b565b935061063d8185602086016107ee565b61064681610821565b840191505092915050565b600061065c82610780565b610666818561079c565b93506106768185602086016107ee565b61067f81610821565b840191505092915050565b600060408301600083015184820360008601526106a78282610618565b915050602083015184820360208601526106c18282610618565b9150508091505092915050565b600060408201905081810360008301526106e88185610651565b905081810360208301526106fc8184610651565b90509392505050565b6000602082019050818103600083015261071f818461068a565b905092915050565b6000604051905081810181811067ffffffffffffffff8211171561074a57600080fd5b8060405250919050565b600067ffffffffffffffff82111561076b57600080fd5b601f19601f8301169050602081019050919050565b600081519050919050565b600082825260208201905092915050565b600082825260208201905092915050565b60006107b8826107bf565b9050919050565b600073ffffffffffffffffffffffffffffffffffffffff82169050919050565b82818337600083830152505050565b60005b8381101561080c5780820151818401526020810190506107f1565b8381111561081b576000848401525b50505050565b6000601f19601f8301169050919050565b61083b816107ad565b811461084657600080fd5b5056fea365627a7a72315820ba5a5ba3f1817e9b36c9fc3c90cc084032d192aabe7851fc5afd954a66bab3d66c6578706572696d656e74616cf564736f6c63430005100040",
  "source": "// SPDX-License-Identifier: MIT\r\npragma solidity >=0.4.21;\r\npragma experimental ABIEncoderV2;\r\n\r\ncontract LoginInfo {\r\n\r\n    struct userStruct {\r\n      string username;\r\n      string email;\r\n    }\r\n\r\n    mapping (address => userStruct) public userMapping;\r\n\r\n    function registerUser(address _usraddr, string memory name, string memory email) public \r\n    {\r\n        userMapping[_usraddr]=userStruct(name,email);\r\n    }\r\n\r\n    function getUser(address _usraddr) public view returns (userStruct memory _userStruct) {\r\n        return userMapping[_usraddr];\r\n    }\r\n\r\n}",
  "sourcePath": "F:\\Blockchain\\PDC Final\\DStore-App\\contracts\\LoginInfo.sol",
  "compiler": {
    "name": "solc",
    "version": "0.5.16+commit.9c3226ce.Emscripten.clang"
  },
  "schemaVersion": "3.4.3",
  "updatedAt": "2021-12-06T17:54:39.854Z",
  "networkType": "ethereum",
  "devdoc": {
    "methods": {}
  },
  "userdoc": {
    "methods": {}
  }
}